{
  "contractName": "PatientManagementSystem",
  "abi": [
    {
      "inputs": [],
      "stateMutability": "nonpayable",
      "type": "constructor"
    },
    {
      "inputs": [],
      "name": "admin",
      "outputs": [
        {
          "internalType": "address",
          "name": "",
          "type": "address"
        }
      ],
      "stateMutability": "view",
      "type": "function",
      "constant": true
    },
    {
      "inputs": [
        {
          "internalType": "uint256",
          "name": "",
          "type": "uint256"
        }
      ],
      "name": "admins",
      "outputs": [
        {
          "internalType": "uint256",
          "name": "id",
          "type": "uint256"
        },
        {
          "internalType": "string",
          "name": "name",
          "type": "string"
        }
      ],
      "stateMutability": "view",
      "type": "function",
      "constant": true
    },
    {
      "inputs": [
        {
          "internalType": "uint256",
          "name": "",
          "type": "uint256"
        }
      ],
      "name": "allDoctorIDs",
      "outputs": [
        {
          "internalType": "uint256",
          "name": "",
          "type": "uint256"
        }
      ],
      "stateMutability": "view",
      "type": "function",
      "constant": true
    },
    {
      "inputs": [
        {
          "internalType": "uint256",
          "name": "",
          "type": "uint256"
        }
      ],
      "name": "allPatientIDs",
      "outputs": [
        {
          "internalType": "uint256",
          "name": "",
          "type": "uint256"
        }
      ],
      "stateMutability": "view",
      "type": "function",
      "constant": true
    },
    {
      "inputs": [
        {
          "internalType": "uint256",
          "name": "",
          "type": "uint256"
        },
        {
          "internalType": "uint256",
          "name": "",
          "type": "uint256"
        }
      ],
      "name": "bookings",
      "outputs": [
        {
          "internalType": "uint256",
          "name": "doctorId",
          "type": "uint256"
        },
        {
          "internalType": "uint256",
          "name": "patientId",
          "type": "uint256"
        },
        {
          "internalType": "uint256",
          "name": "slot",
          "type": "uint256"
        }
      ],
      "stateMutability": "view",
      "type": "function",
      "constant": true
    },
    {
      "inputs": [
        {
          "internalType": "address",
          "name": "",
          "type": "address"
        }
      ],
      "name": "doctorAddresses",
      "outputs": [
        {
          "internalType": "bool",
          "name": "",
          "type": "bool"
        }
      ],
      "stateMutability": "view",
      "type": "function",
      "constant": true
    },
    {
      "inputs": [
        {
          "internalType": "uint256",
          "name": "",
          "type": "uint256"
        }
      ],
      "name": "doctors",
      "outputs": [
        {
          "internalType": "uint256",
          "name": "id",
          "type": "uint256"
        },
        {
          "internalType": "address",
          "name": "doctorAddress",
          "type": "address"
        },
        {
          "internalType": "string",
          "name": "name",
          "type": "string"
        }
      ],
      "stateMutability": "view",
      "type": "function",
      "constant": true
    },
    {
      "inputs": [
        {
          "internalType": "uint256",
          "name": "",
          "type": "uint256"
        }
      ],
      "name": "patients",
      "outputs": [
        {
          "internalType": "uint256",
          "name": "id",
          "type": "uint256"
        },
        {
          "internalType": "address",
          "name": "patientAddress",
          "type": "address"
        },
        {
          "internalType": "uint256",
          "name": "age",
          "type": "uint256"
        },
        {
          "internalType": "string",
          "name": "gender",
          "type": "string"
        },
        {
          "internalType": "string",
          "name": "district",
          "type": "string"
        },
        {
          "internalType": "string",
          "name": "symptomsDetails",
          "type": "string"
        },
        {
          "internalType": "bool",
          "name": "isDead",
          "type": "bool"
        },
        {
          "internalType": "enum PatientManagementSystem.VaccineStatus",
          "name": "vaccineStatus",
          "type": "uint8"
        }
      ],
      "stateMutability": "view",
      "type": "function",
      "constant": true
    },
    {
      "inputs": [
        {
          "internalType": "address",
          "name": "",
          "type": "address"
        }
      ],
      "name": "registeredAdminAddresses",
      "outputs": [
        {
          "internalType": "bool",
          "name": "",
          "type": "bool"
        }
      ],
      "stateMutability": "view",
      "type": "function",
      "constant": true
    },
    {
      "inputs": [
        {
          "internalType": "uint256",
          "name": "",
          "type": "uint256"
        }
      ],
      "name": "registeredAdminIDs",
      "outputs": [
        {
          "internalType": "bool",
          "name": "",
          "type": "bool"
        }
      ],
      "stateMutability": "view",
      "type": "function",
      "constant": true
    },
    {
      "inputs": [
        {
          "internalType": "uint256",
          "name": "",
          "type": "uint256"
        }
      ],
      "name": "registeredDoctorIDs",
      "outputs": [
        {
          "internalType": "bool",
          "name": "",
          "type": "bool"
        }
      ],
      "stateMutability": "view",
      "type": "function",
      "constant": true
    },
    {
      "inputs": [
        {
          "internalType": "address",
          "name": "",
          "type": "address"
        }
      ],
      "name": "registeredPatientAddresses",
      "outputs": [
        {
          "internalType": "bool",
          "name": "",
          "type": "bool"
        }
      ],
      "stateMutability": "view",
      "type": "function",
      "constant": true
    },
    {
      "inputs": [
        {
          "internalType": "uint256",
          "name": "",
          "type": "uint256"
        }
      ],
      "name": "registeredPatientIDs",
      "outputs": [
        {
          "internalType": "bool",
          "name": "",
          "type": "bool"
        }
      ],
      "stateMutability": "view",
      "type": "function",
      "constant": true
    },
    {
      "inputs": [],
      "name": "totalAdmins",
      "outputs": [
        {
          "internalType": "uint256",
          "name": "",
          "type": "uint256"
        }
      ],
      "stateMutability": "view",
      "type": "function",
      "constant": true
    },
    {
      "inputs": [],
      "name": "totalDoctors",
      "outputs": [
        {
          "internalType": "uint256",
          "name": "",
          "type": "uint256"
        }
      ],
      "stateMutability": "view",
      "type": "function",
      "constant": true
    },
    {
      "inputs": [],
      "name": "totalPatients",
      "outputs": [
        {
          "internalType": "uint256",
          "name": "",
          "type": "uint256"
        }
      ],
      "stateMutability": "view",
      "type": "function",
      "constant": true
    },
    {
      "inputs": [
        {
          "internalType": "address",
          "name": "_addr",
          "type": "address"
        },
        {
          "internalType": "uint256",
          "name": "_id",
          "type": "uint256"
        },
        {
          "internalType": "uint256",
          "name": "_age",
          "type": "uint256"
        },
        {
          "internalType": "string",
          "name": "_gender",
          "type": "string"
        },
        {
          "internalType": "string",
          "name": "_district",
          "type": "string"
        },
        {
          "internalType": "string",
          "name": "_symptomsDetails",
          "type": "string"
        }
      ],
      "name": "registerPatient",
      "outputs": [],
      "stateMutability": "nonpayable",
      "type": "function"
    },
    {
      "inputs": [
        {
          "internalType": "address",
          "name": "_addr",
          "type": "address"
        },
        {
          "internalType": "uint256",
          "name": "_id",
          "type": "uint256"
        },
        {
          "internalType": "string",
          "name": "_name",
          "type": "string"
        }
      ],
      "name": "registerDoctor",
      "outputs": [],
      "stateMutability": "nonpayable",
      "type": "function"
    },
    {
      "inputs": [
        {
          "internalType": "address",
          "name": "_addr",
          "type": "address"
        },
        {
          "internalType": "uint256",
          "name": "_id",
          "type": "uint256"
        },
        {
          "internalType": "string",
          "name": "_name",
          "type": "string"
        }
      ],
      "name": "registerAdmin",
      "outputs": [],
      "stateMutability": "nonpayable",
      "type": "function"
    },
    {
      "inputs": [
        {
          "internalType": "uint256",
          "name": "patientId",
          "type": "uint256"
        },
        {
          "internalType": "enum PatientManagementSystem.VaccineStatus",
          "name": "newVaccineStatus",
          "type": "uint8"
        },
        {
          "internalType": "bool",
          "name": "isDead",
          "type": "bool"
        }
      ],
      "name": "updatePatientInfo",
      "outputs": [],
      "stateMutability": "nonpayable",
      "type": "function"
    },
    {
      "inputs": [
        {
          "internalType": "uint256",
          "name": "_doctorId",
          "type": "uint256"
        },
        {
          "internalType": "uint256",
          "name": "_slot",
          "type": "uint256"
        },
        {
          "internalType": "uint256",
          "name": "_patientId",
          "type": "uint256"
        }
      ],
      "name": "bookAppointment",
      "outputs": [],
      "stateMutability": "payable",
      "type": "function",
      "payable": true
    },
    {
      "inputs": [
        {
          "internalType": "uint256",
          "name": "doctorId",
          "type": "uint256"
        }
      ],
      "name": "checkAppointmentSchedule",
      "outputs": [
        {
          "internalType": "bool[]",
          "name": "",
          "type": "bool[]"
        }
      ],
      "stateMutability": "view",
      "type": "function",
      "constant": true
    },
    {
      "inputs": [
        {
          "internalType": "uint256",
          "name": "patientId",
          "type": "uint256"
        }
      ],
      "name": "getPatientDetails",
      "outputs": [
        {
          "components": [
            {
              "internalType": "uint256",
              "name": "id",
              "type": "uint256"
            },
            {
              "internalType": "address",
              "name": "patientAddress",
              "type": "address"
            },
            {
              "internalType": "uint256",
              "name": "age",
              "type": "uint256"
            },
            {
              "internalType": "string",
              "name": "gender",
              "type": "string"
            },
            {
              "internalType": "string",
              "name": "district",
              "type": "string"
            },
            {
              "internalType": "string",
              "name": "symptomsDetails",
              "type": "string"
            },
            {
              "internalType": "bool",
              "name": "isDead",
              "type": "bool"
            },
            {
              "internalType": "enum PatientManagementSystem.VaccineStatus",
              "name": "vaccineStatus",
              "type": "uint8"
            }
          ],
          "internalType": "struct PatientManagementSystem.Patient",
          "name": "",
          "type": "tuple"
        }
      ],
      "stateMutability": "view",
      "type": "function",
      "constant": true
    },
    {
      "inputs": [
        {
          "internalType": "uint256",
          "name": "doctorId",
          "type": "uint256"
        }
      ],
      "name": "getDoctorDetails",
      "outputs": [
        {
          "components": [
            {
              "internalType": "uint256",
              "name": "id",
              "type": "uint256"
            },
            {
              "internalType": "address",
              "name": "doctorAddress",
              "type": "address"
            },
            {
              "internalType": "string",
              "name": "name",
              "type": "string"
            },
            {
              "internalType": "bool[]",
              "name": "availableSlots",
              "type": "bool[]"
            }
          ],
          "internalType": "struct PatientManagementSystem.Doctor",
          "name": "",
          "type": "tuple"
        }
      ],
      "stateMutability": "view",
      "type": "function",
      "constant": true
    },
    {
      "inputs": [],
      "name": "getAllPatients",
      "outputs": [
        {
          "components": [
            {
              "internalType": "uint256",
              "name": "id",
              "type": "uint256"
            },
            {
              "internalType": "address",
              "name": "patientAddress",
              "type": "address"
            },
            {
              "internalType": "uint256",
              "name": "age",
              "type": "uint256"
            },
            {
              "internalType": "string",
              "name": "gender",
              "type": "string"
            },
            {
              "internalType": "string",
              "name": "district",
              "type": "string"
            },
            {
              "internalType": "string",
              "name": "symptomsDetails",
              "type": "string"
            },
            {
              "internalType": "bool",
              "name": "isDead",
              "type": "bool"
            },
            {
              "internalType": "enum PatientManagementSystem.VaccineStatus",
              "name": "vaccineStatus",
              "type": "uint8"
            }
          ],
          "internalType": "struct PatientManagementSystem.Patient[]",
          "name": "",
          "type": "tuple[]"
        }
      ],
      "stateMutability": "view",
      "type": "function",
      "constant": true
    },
    {
      "inputs": [],
      "name": "getAllDoctors",
      "outputs": [
        {
          "components": [
            {
              "internalType": "uint256",
              "name": "id",
              "type": "uint256"
            },
            {
              "internalType": "address",
              "name": "doctorAddress",
              "type": "address"
            },
            {
              "internalType": "string",
              "name": "name",
              "type": "string"
            },
            {
              "internalType": "bool[]",
              "name": "availableSlots",
              "type": "bool[]"
            }
          ],
          "internalType": "struct PatientManagementSystem.Doctor[]",
          "name": "",
          "type": "tuple[]"
        }
      ],
      "stateMutability": "view",
      "type": "function",
      "constant": true
    },
    {
      "inputs": [
        {
          "internalType": "uint256",
          "name": "_doctorId",
          "type": "uint256"
        }
      ],
      "name": "bookingDetails",
      "outputs": [
        {
          "components": [
            {
              "internalType": "uint256",
              "name": "doctorId",
              "type": "uint256"
            },
            {
              "internalType": "uint256",
              "name": "patientId",
              "type": "uint256"
            },
            {
              "internalType": "uint256",
              "name": "slot",
              "type": "uint256"
            }
          ],
          "internalType": "struct PatientManagementSystem.SlotDetail[]",
          "name": "",
          "type": "tuple[]"
        }
      ],
      "stateMutability": "view",
      "type": "function",
      "constant": true
    }
  ],
  "bytecode": "0x608060405234801561001057600080fd5b5033600f60006101000a81548173ffffffffffffffffffffffffffffffffffffffff021916908373ffffffffffffffffffffffffffffffffffffffff16021790555061406c806100616000396000f3fe60806040526004361061019c5760003560e01c806393119a83116100ec578063ca1772f61161008a578063e2d9e0d711610064578063e2d9e0d714610681578063eb68048b146106be578063f0d95090146106e9578063f851a440146107145761019c565b8063ca1772f6146105f0578063cbf108cd1461062d578063deb5ef09146106565761019c565b8063ae52a0e7116100c6578063ae52a0e714610524578063afceb7ef1461054d578063bfe3c9401461058a578063c365b338146105c75761019c565b806393119a831461047a578063a859176f146104be578063ae075657146104fb5761019c565b80633f61dc711161015957806365b44d7e1161013357806365b44d7e146103965780636ef6e6da146103c15780636efb1b84146103fe5780637903a7871461043d5761019c565b80633f61dc71146102df57806359d319a21461031c578063643975fa146103595761019c565b806313eca405146101a157806314bfd6d0146101bd57806318a231a9146101fb578063300c601c14610226578063312c73b3146102635780633b6d5b8c146102a2575b600080fd5b6101bb60048036038101906101b69190612d51565b61073f565b005b3480156101c957600080fd5b506101e460048036038101906101df9190612c9d565b6109e2565b6040516101f29291906138cd565b60405180910390f35b34801561020757600080fd5b50610210610a8e565b60405161021d919061359e565b60405180910390f35b34801561023257600080fd5b5061024d60048036038101906102489190612c9d565b610ea6565b60405161025a91906137bf565b60405180910390f35b34801561026f57600080fd5b5061028a60048036038101906102859190612d15565b6111f5565b604051610299939291906138fd565b60405180910390f35b3480156102ae57600080fd5b506102c960048036038101906102c49190612c9d565b61123c565b6040516102d6919061379d565b60405180910390f35b3480156102eb57600080fd5b5061030660048036038101906103019190612c9d565b611438565b604051610313919061355a565b60405180910390f35b34801561032857600080fd5b50610343600480360381019061033e9190612b3c565b61152b565b60405161035091906135e2565b60405180910390f35b34801561036557600080fd5b50610380600480360381019061037b9190612c9d565b61154b565b60405161038d91906135e2565b60405180910390f35b3480156103a257600080fd5b506103ab61156b565b6040516103b891906137e1565b60405180910390f35b3480156103cd57600080fd5b506103e860048036038101906103e39190612c9d565b611571565b6040516103f591906137e1565b60405180910390f35b34801561040a57600080fd5b5061042560048036038101906104209190612c9d565b611595565b604051610434939291906137fc565b60405180910390f35b34801561044957600080fd5b50610464600480360381019061045f9190612b3c565b611667565b60405161047191906135e2565b60405180910390f35b34801561048657600080fd5b506104a1600480360381019061049c9190612c9d565b611687565b6040516104b598979695949392919061383a565b60405180910390f35b3480156104ca57600080fd5b506104e560048036038101906104e09190612c9d565b6118a1565b6040516104f291906137e1565b60405180910390f35b34801561050757600080fd5b50610522600480360381019061051d9190612bcc565b6118c5565b005b34801561053057600080fd5b5061054b60048036038101906105469190612b65565b611c49565b005b34801561055957600080fd5b50610574600480360381019061056f9190612b3c565b611eba565b60405161058191906135e2565b60405180910390f35b34801561059657600080fd5b506105b160048036038101906105ac9190612c9d565b611eda565b6040516105be91906135e2565b60405180910390f35b3480156105d357600080fd5b506105ee60048036038101906105e99190612b65565b611efa565b005b3480156105fc57600080fd5b5061061760048036038101906106129190612c9d565b6122ce565b60405161062491906135c0565b60405180910390f35b34801561063957600080fd5b50610654600480360381019061064f9190612cc6565b61235e565b005b34801561066257600080fd5b5061066b61254d565b60405161067891906137e1565b60405180910390f35b34801561068d57600080fd5b506106a860048036038101906106a39190612c9d565b612553565b6040516106b591906135e2565b60405180910390f35b3480156106ca57600080fd5b506106d3612573565b6040516106e091906137e1565b60405180910390f35b3480156106f557600080fd5b506106fe612579565b60405161070b919061357c565b60405180910390f35b34801561072057600080fd5b5061072961283e565b604051610736919061353f565b60405180910390f35b600060016000858152602001908152602001600020600001541415610799576040517f08c379a00000000000000000000000000000000000000000000000000000000081526004016107909061369d565b60405180910390fd5b6018821080156107aa575060008210155b6107e9576040517f08c379a00000000000000000000000000000000000000000000000000000000081526004016107e09061373d565b60405180910390fd5b6000806000838152602001908152602001600020600001541415610842576040517f08c379a0000000000000000000000000000000000000000000000000000000008152600401610839906136fd565b60405180910390fd5b670de0b6b3a7640000341461088c576040517f08c379a00000000000000000000000000000000000000000000000000000000081526004016108839061361d565b60405180910390fd5b60005b600960008581526020019081526020016000208054905081101561095f57826009600086815260200190815260200160002082815481106108f9577f4e487b7100000000000000000000000000000000000000000000000000000000600052603260045260246000fd5b906000526020600020906003020160020154141561094c576040517f08c379a0000000000000000000000000000000000000000000000000000000008152600401610943906136bd565b60405180910390fd5b808061095790613bbe565b91505061088f565b506000604051806060016040528085815260200183815260200184815250905060096000858152602001908152602001600020819080600181540180825580915050600190039060005260206000209060030201600090919091909150600082015181600001556020820151816001015560408201518160020155505050505050565b6002602052806000526040600020600091509050806000015490806001018054610a0b90613b5b565b80601f0160208091040260200160405190810160405280929190818152602001828054610a3790613b5b565b8015610a845780601f10610a5957610100808354040283529160200191610a84565b820191906000526020600020905b815481529060010190602001808311610a6757829003601f168201915b5050505050905082565b60606000600a8054905067ffffffffffffffff811115610ad7577f4e487b7100000000000000000000000000000000000000000000000000000000600052604160045260246000fd5b604051908082528060200260200182016040528015610b1057816020015b610afd612864565b815260200190600190039081610af55790505b50905060005b600a80549050811015610e9e57600080600a8381548110610b60577f4e487b7100000000000000000000000000000000000000000000000000000000600052603260045260246000fd5b9060005260206000200154815260200190815260200160002060405180610100016040529081600082015481526020016001820160009054906101000a900473ffffffffffffffffffffffffffffffffffffffff1673ffffffffffffffffffffffffffffffffffffffff1673ffffffffffffffffffffffffffffffffffffffff16815260200160028201548152602001600382018054610bff90613b5b565b80601f0160208091040260200160405190810160405280929190818152602001828054610c2b90613b5b565b8015610c785780601f10610c4d57610100808354040283529160200191610c78565b820191906000526020600020905b815481529060010190602001808311610c5b57829003601f168201915b50505050508152602001600482018054610c9190613b5b565b80601f0160208091040260200160405190810160405280929190818152602001828054610cbd90613b5b565b8015610d0a5780601f10610cdf57610100808354040283529160200191610d0a565b820191906000526020600020905b815481529060010190602001808311610ced57829003601f168201915b50505050508152602001600582018054610d2390613b5b565b80601f0160208091040260200160405190810160405280929190818152602001828054610d4f90613b5b565b8015610d9c5780601f10610d7157610100808354040283529160200191610d9c565b820191906000526020600020905b815481529060010190602001808311610d7f57829003601f168201915b505050505081526020016006820160009054906101000a900460ff161515151581526020016006820160019054906101000a900460ff166002811115610e0b577f4e487b7100000000000000000000000000000000000000000000000000000000600052602160045260246000fd5b6002811115610e43577f4e487b7100000000000000000000000000000000000000000000000000000000600052602160045260246000fd5b81525050828281518110610e80577f4e487b7100000000000000000000000000000000000000000000000000000000600052603260045260246000fd5b60200260200101819052508080610e9690613bbe565b915050610b16565b508091505090565b610eae612864565b6003600083815260200190815260200160002060009054906101000a900460ff16610f0e576040517f08c379a0000000000000000000000000000000000000000000000000000000008152600401610f05906136fd565b60405180910390fd5b60008083815260200190815260200160002060405180610100016040529081600082015481526020016001820160009054906101000a900473ffffffffffffffffffffffffffffffffffffffff1673ffffffffffffffffffffffffffffffffffffffff1673ffffffffffffffffffffffffffffffffffffffff16815260200160028201548152602001600382018054610fa690613b5b565b80601f0160208091040260200160405190810160405280929190818152602001828054610fd290613b5b565b801561101f5780601f10610ff45761010080835404028352916020019161101f565b820191906000526020600020905b81548152906001019060200180831161100257829003601f168201915b5050505050815260200160048201805461103890613b5b565b80601f016020809104026020016040519081016040528092919081815260200182805461106490613b5b565b80156110b15780601f10611086576101008083540402835291602001916110b1565b820191906000526020600020905b81548152906001019060200180831161109457829003601f168201915b505050505081526020016005820180546110ca90613b5b565b80601f01602080910402602001604051908101604052809291908181526020018280546110f690613b5b565b80156111435780601f1061111857610100808354040283529160200191611143565b820191906000526020600020905b81548152906001019060200180831161112657829003601f168201915b505050505081526020016006820160009054906101000a900460ff161515151581526020016006820160019054906101000a900460ff1660028111156111b2577f4e487b7100000000000000000000000000000000000000000000000000000000600052602160045260246000fd5b60028111156111ea577f4e487b7100000000000000000000000000000000000000000000000000000000600052602160045260246000fd5b815250509050919050565b6009602052816000526040600020818154811061121157600080fd5b9060005260206000209060030201600091509150508060000154908060010154908060020154905083565b6112446128f9565b6005600083815260200190815260200160002060009054906101000a900460ff166112a4576040517f08c379a000000000000000000000000000000000000000000000000000000000815260040161129b9061369d565b60405180910390fd5b60016000838152602001908152602001600020604051806080016040529081600082015481526020016001820160009054906101000a900473ffffffffffffffffffffffffffffffffffffffff1673ffffffffffffffffffffffffffffffffffffffff1673ffffffffffffffffffffffffffffffffffffffff16815260200160028201805461133290613b5b565b80601f016020809104026020016040519081016040528092919081815260200182805461135e90613b5b565b80156113ab5780601f10611380576101008083540402835291602001916113ab565b820191906000526020600020905b81548152906001019060200180831161138e57829003601f168201915b505050505081526020016003820180548060200260200160405190810160405280929190818152602001828054801561142857602002820191906000526020600020906000905b82829054906101000a900460ff161515815260200190600101906020826000010492830192600103820291508084116113f25790505b5050505050815250509050919050565b60606005600083815260200190815260200160002060009054906101000a900460ff1661149a576040517f08c379a00000000000000000000000000000000000000000000000000000000081526004016114919061369d565b60405180910390fd5b6001600083815260200190815260200160002060030180548060200260200160405190810160405280929190818152602001828054801561151f57602002820191906000526020600020906000905b82829054906101000a900460ff161515815260200190600101906020826000010492830192600103820291508084116114e95790505b50505050509050919050565b60066020528060005260406000206000915054906101000a900460ff1681565b60056020528060005260406000206000915054906101000a900460ff1681565b600d5481565b600a818154811061158157600080fd5b906000526020600020016000915090505481565b60016020528060005260406000206000915090508060000154908060010160009054906101000a900473ffffffffffffffffffffffffffffffffffffffff16908060020180546115e490613b5b565b80601f016020809104026020016040519081016040528092919081815260200182805461161090613b5b565b801561165d5780601f106116325761010080835404028352916020019161165d565b820191906000526020600020905b81548152906001019060200180831161164057829003601f168201915b5050505050905083565b60046020528060005260406000206000915054906101000a900460ff1681565b60006020528060005260406000206000915090508060000154908060010160009054906101000a900473ffffffffffffffffffffffffffffffffffffffff16908060020154908060030180546116dc90613b5b565b80601f016020809104026020016040519081016040528092919081815260200182805461170890613b5b565b80156117555780601f1061172a57610100808354040283529160200191611755565b820191906000526020600020905b81548152906001019060200180831161173857829003601f168201915b50505050509080600401805461176a90613b5b565b80601f016020809104026020016040519081016040528092919081815260200182805461179690613b5b565b80156117e35780601f106117b8576101008083540402835291602001916117e3565b820191906000526020600020905b8154815290600101906020018083116117c657829003601f168201915b5050505050908060050180546117f890613b5b565b80601f016020809104026020016040519081016040528092919081815260200182805461182490613b5b565b80156118715780601f1061184657610100808354040283529160200191611871565b820191906000526020600020905b81548152906001019060200180831161185457829003601f168201915b5050505050908060060160009054906101000a900460ff16908060060160019054906101000a900460ff16905088565b600b81815481106118b157600080fd5b906000526020600020016000915090505481565b6003600086815260200190815260200160002060009054906101000a900460ff1615611926576040517f08c379a000000000000000000000000000000000000000000000000000000000815260040161191d9061375d565b60405180910390fd5b600460008773ffffffffffffffffffffffffffffffffffffffff1673ffffffffffffffffffffffffffffffffffffffff16815260200190815260200160002060009054906101000a900460ff16156119b3576040517f08c379a00000000000000000000000000000000000000000000000000000000081526004016119aa9061363d565b60405180910390fd5b6040518061010001604052808681526020018773ffffffffffffffffffffffffffffffffffffffff16815260200185815260200184815260200183815260200182815260200160001515815260200160006002811115611a3c577f4e487b7100000000000000000000000000000000000000000000000000000000600052602160045260246000fd5b8152506000808781526020019081526020016000206000820151816000015560208201518160010160006101000a81548173ffffffffffffffffffffffffffffffffffffffff021916908373ffffffffffffffffffffffffffffffffffffffff160217905550604082015181600201556060820151816003019080519060200190611ac8929190612937565b506080820151816004019080519060200190611ae5929190612937565b5060a0820151816005019080519060200190611b02929190612937565b5060c08201518160060160006101000a81548160ff02191690831515021790555060e08201518160060160016101000a81548160ff02191690836002811115611b74577f4e487b7100000000000000000000000000000000000000000000000000000000600052602160045260246000fd5b021790555090505060016003600087815260200190815260200160002060006101000a81548160ff0219169083151502179055506001600460008873ffffffffffffffffffffffffffffffffffffffff1673ffffffffffffffffffffffffffffffffffffffff16815260200190815260200160002060006101000a81548160ff021916908315150217905550600a859080600181540180825580915050600190039060005260206000200160009091909190915055600c6000815480929190611c3c90613bbe565b9190505550505050505050565b600f60009054906101000a900473ffffffffffffffffffffffffffffffffffffffff1673ffffffffffffffffffffffffffffffffffffffff163373ffffffffffffffffffffffffffffffffffffffff1614611cd9576040517f08c379a0000000000000000000000000000000000000000000000000000000008152600401611cd09061367d565b60405180910390fd5b6007600083815260200190815260200160002060009054906101000a900460ff1615611d3a576040517f08c379a0000000000000000000000000000000000000000000000000000000008152600401611d31906135fd565b60405180910390fd5b600860008473ffffffffffffffffffffffffffffffffffffffff1673ffffffffffffffffffffffffffffffffffffffff16815260200190815260200160002060009054906101000a900460ff1615611dc7576040517f08c379a0000000000000000000000000000000000000000000000000000000008152600401611dbe906136dd565b60405180910390fd5b60405180604001604052808381526020018281525060026000848152602001908152602001600020600082015181600001556020820151816001019080519060200190611e15929190612937565b5090505060016007600084815260200190815260200160002060006101000a81548160ff0219169083151502179055506001600860008573ffffffffffffffffffffffffffffffffffffffff1673ffffffffffffffffffffffffffffffffffffffff16815260200190815260200160002060006101000a81548160ff021916908315150217905550600e6000815480929190611eb090613bbe565b9190505550505050565b60086020528060005260406000206000915054906101000a900460ff1681565b60076020528060005260406000206000915054906101000a900460ff1681565b600f60009054906101000a900473ffffffffffffffffffffffffffffffffffffffff1673ffffffffffffffffffffffffffffffffffffffff163373ffffffffffffffffffffffffffffffffffffffff1614611f8a576040517f08c379a0000000000000000000000000000000000000000000000000000000008152600401611f819061367d565b60405180910390fd5b6005600083815260200190815260200160002060009054906101000a900460ff1615611feb576040517f08c379a0000000000000000000000000000000000000000000000000000000008152600401611fe29061365d565b60405180910390fd5b600660008473ffffffffffffffffffffffffffffffffffffffff1673ffffffffffffffffffffffffffffffffffffffff16815260200190815260200160002060009054906101000a900460ff1615612078576040517f08c379a000000000000000000000000000000000000000000000000000000000815260040161206f9061377d565b60405180910390fd5b6000600160008481526020019081526020016000209050828160000181905550838160010160006101000a81548173ffffffffffffffffffffffffffffffffffffffff021916908373ffffffffffffffffffffffffffffffffffffffff160217905550818160020190805190602001906120f3929190612937565b50601867ffffffffffffffff811115612135577f4e487b7100000000000000000000000000000000000000000000000000000000600052604160045260246000fd5b6040519080825280602002602001820160405280156121635781602001602082028036833780820191505090505b5081600301908051906020019061217b9291906129bd565b5060005b60188110156122025760018260030182815481106121c6577f4e487b7100000000000000000000000000000000000000000000000000000000600052603260045260246000fd5b90600052602060002090602091828204019190066101000a81548160ff02191690831515021790555080806121fa90613bbe565b91505061217f565b506001600660008673ffffffffffffffffffffffffffffffffffffffff1673ffffffffffffffffffffffffffffffffffffffff16815260200190815260200160002060006101000a81548160ff02191690831515021790555060016005600085815260200190815260200160002060006101000a81548160ff021916908315150217905550600b839080600181540180825580915050600190039060005260206000200160009091909190915055600d60008154809291906122c390613bbe565b919050555050505050565b606060096000838152602001908152602001600020805480602002602001604051908101604052809291908181526020016000905b828210156123535783829060005260206000209060030201604051806060016040529081600082015481526020016001820154815260200160028201548152505081526020019060010190612303565b505050509050919050565b600f60009054906101000a900473ffffffffffffffffffffffffffffffffffffffff1673ffffffffffffffffffffffffffffffffffffffff163373ffffffffffffffffffffffffffffffffffffffff16146123ee576040517f08c379a00000000000000000000000000000000000000000000000000000000081526004016123e59061367d565b60405180910390fd5b6003600084815260200190815260200160002060009054906101000a900460ff1661244e576040517f08c379a0000000000000000000000000000000000000000000000000000000008152600401612445906136fd565b60405180910390fd5b60008084815260200190815260200160002060060160009054906101000a900460ff16156124b1576040517f08c379a00000000000000000000000000000000000000000000000000000000081526004016124a89061371d565b60405180910390fd5b8160008085815260200190815260200160002060060160016101000a81548160ff0219169083600281111561250f577f4e487b7100000000000000000000000000000000000000000000000000000000600052602160045260246000fd5b02179055508015612548578060008085815260200190815260200160002060060160006101000a81548160ff0219169083151502179055505b505050565b600c5481565b60036020528060005260406000206000915054906101000a900460ff1681565b600e5481565b60606000600b8054905067ffffffffffffffff8111156125c2577f4e487b7100000000000000000000000000000000000000000000000000000000600052604160045260246000fd5b6040519080825280602002602001820160405280156125fb57816020015b6125e86128f9565b8152602001906001900390816125e05790505b50905060005b600b805490508110156128365760016000600b838154811061264c577f4e487b7100000000000000000000000000000000000000000000000000000000600052603260045260246000fd5b90600052602060002001548152602001908152602001600020604051806080016040529081600082015481526020016001820160009054906101000a900473ffffffffffffffffffffffffffffffffffffffff1673ffffffffffffffffffffffffffffffffffffffff1673ffffffffffffffffffffffffffffffffffffffff1681526020016002820180546126e090613b5b565b80601f016020809104026020016040519081016040528092919081815260200182805461270c90613b5b565b80156127595780601f1061272e57610100808354040283529160200191612759565b820191906000526020600020905b81548152906001019060200180831161273c57829003601f168201915b50505050508152602001600382018054806020026020016040519081016040528092919081815260200182805480156127d657602002820191906000526020600020906000905b82829054906101000a900460ff161515815260200190600101906020826000010492830192600103820291508084116127a05790505b505050505081525050828281518110612818577f4e487b7100000000000000000000000000000000000000000000000000000000600052603260045260246000fd5b6020026020010181905250808061282e90613bbe565b915050612601565b508091505090565b600f60009054906101000a900473ffffffffffffffffffffffffffffffffffffffff1681565b60405180610100016040528060008152602001600073ffffffffffffffffffffffffffffffffffffffff16815260200160008152602001606081526020016060815260200160608152602001600015158152602001600060028111156128f3577f4e487b7100000000000000000000000000000000000000000000000000000000600052602160045260246000fd5b81525090565b604051806080016040528060008152602001600073ffffffffffffffffffffffffffffffffffffffff16815260200160608152602001606081525090565b82805461294390613b5b565b90600052602060002090601f01602090048101928261296557600085556129ac565b82601f1061297e57805160ff19168380011785556129ac565b828001600101855582156129ac579182015b828111156129ab578251825591602001919060010190612990565b5b5090506129b99190612a63565b5090565b82805482825590600052602060002090601f01602090048101928215612a525791602002820160005b83821115612a2357835183826101000a81548160ff02191690831515021790555092602001926001016020816000010492830192600103026129e6565b8015612a505782816101000a81549060ff0219169055600101602081600001049283019260010302612a23565b505b509050612a5f9190612a63565b5090565b5b80821115612a7c576000816000905550600101612a64565b5090565b6000612a93612a8e84613959565b613934565b905082815260208101848484011115612aab57600080fd5b612ab6848285613b19565b509392505050565b600081359050612acd81613fe1565b92915050565b600081359050612ae281613ff8565b92915050565b600081359050612af78161400f565b92915050565b600082601f830112612b0e57600080fd5b8135612b1e848260208601612a80565b91505092915050565b600081359050612b368161401f565b92915050565b600060208284031215612b4e57600080fd5b6000612b5c84828501612abe565b91505092915050565b600080600060608486031215612b7a57600080fd5b6000612b8886828701612abe565b9350506020612b9986828701612b27565b925050604084013567ffffffffffffffff811115612bb657600080fd5b612bc286828701612afd565b9150509250925092565b60008060008060008060c08789031215612be557600080fd5b6000612bf389828a01612abe565b9650506020612c0489828a01612b27565b9550506040612c1589828a01612b27565b945050606087013567ffffffffffffffff811115612c3257600080fd5b612c3e89828a01612afd565b935050608087013567ffffffffffffffff811115612c5b57600080fd5b612c6789828a01612afd565b92505060a087013567ffffffffffffffff811115612c8457600080fd5b612c9089828a01612afd565b9150509295509295509295565b600060208284031215612caf57600080fd5b6000612cbd84828501612b27565b91505092915050565b600080600060608486031215612cdb57600080fd5b6000612ce986828701612b27565b9350506020612cfa86828701612ae8565b9250506040612d0b86828701612ad3565b9150509250925092565b60008060408385031215612d2857600080fd5b6000612d3685828601612b27565b9250506020612d4785828601612b27565b9150509250929050565b600080600060608486031215612d6657600080fd5b6000612d7486828701612b27565b9350506020612d8586828701612b27565b9250506040612d9686828701612b27565b9150509250925092565b6000612dac838361301a565b60208301905092915050565b6000612dc4838361328f565b905092915050565b6000612dd88383613363565b905092915050565b6000612dec83836134df565b60608301905092915050565b612e0181613aac565b82525050565b612e1081613aac565b82525050565b6000612e21826139ca565b612e2b8185613a35565b9350612e368361398a565b8060005b83811015612e67578151612e4e8882612da0565b9750612e5983613a01565b925050600181019050612e3a565b5085935050505092915050565b6000612e7f826139ca565b612e898185613a46565b9350612e948361398a565b8060005b83811015612ec5578151612eac8882612da0565b9750612eb783613a01565b925050600181019050612e98565b5085935050505092915050565b6000612edd826139d5565b612ee78185613a57565b935083602082028501612ef98561399a565b8060005b85811015612f355784840389528151612f168582612db8565b9450612f2183613a0e565b925060208a01995050600181019050612efd565b50829750879550505050505092915050565b6000612f52826139e0565b612f5c8185613a68565b935083602082028501612f6e856139aa565b8060005b85811015612faa5784840389528151612f8b8582612dcc565b9450612f9683613a1b565b925060208a01995050600181019050612f72565b50829750879550505050505092915050565b6000612fc7826139eb565b612fd18185613a79565b9350612fdc836139ba565b8060005b8381101561300d578151612ff48882612de0565b9750612fff83613a28565b925050600181019050612fe0565b5085935050505092915050565b61302381613abe565b82525050565b61303281613abe565b82525050565b61304181613b07565b82525050565b61305081613b07565b82525050565b6000613061826139f6565b61306b8185613a8a565b935061307b818560208601613b28565b61308481613cc3565b840191505092915050565b600061309a826139f6565b6130a48185613a9b565b93506130b4818560208601613b28565b6130bd81613cc3565b840191505092915050565b60006130d5601c83613a9b565b91506130e082613cd4565b602082019050919050565b60006130f8602883613a9b565b915061310382613cfd565b604082019050919050565b600061311b602f83613a9b565b915061312682613d4c565b604082019050919050565b600061313e601c83613a9b565b915061314982613d9b565b602082019050919050565b6000613161602383613a9b565b915061316c82613dc4565b604082019050919050565b6000613184601683613a9b565b915061318f82613e13565b602082019050919050565b60006131a7601483613a9b565b91506131b282613e3c565b602082019050919050565b60006131ca603083613a9b565b91506131d582613e65565b604082019050919050565b60006131ed601783613a9b565b91506131f882613eb4565b602082019050919050565b6000613210603083613a9b565b915061321b82613edd565b604082019050919050565b6000613233600d83613a9b565b915061323e82613f2c565b602082019050919050565b6000613256601e83613a9b565b915061326182613f55565b602082019050919050565b6000613279602e83613a9b565b915061328482613f7e565b604082019050919050565b60006080830160008301516132a76000860182613521565b5060208301516132ba6020860182612df8565b50604083015184820360408601526132d28282613056565b915050606083015184820360608601526132ec8282612e16565b9150508091505092915050565b60006080830160008301516133116000860182613521565b5060208301516133246020860182612df8565b506040830151848203604086015261333c8282613056565b915050606083015184820360608601526133568282612e16565b9150508091505092915050565b60006101008301600083015161337c6000860182613521565b50602083015161338f6020860182612df8565b5060408301516133a26040860182613521565b50606083015184820360608601526133ba8282613056565b915050608083015184820360808601526133d48282613056565b91505060a083015184820360a08601526133ee8282613056565b91505060c083015161340360c086018261301a565b5060e083015161341660e0860182613038565b508091505092915050565b60006101008301600083015161343a6000860182613521565b50602083015161344d6020860182612df8565b5060408301516134606040860182613521565b50606083015184820360608601526134788282613056565b915050608083015184820360808601526134928282613056565b91505060a083015184820360a08601526134ac8282613056565b91505060c08301516134c160c086018261301a565b5060e08301516134d460e0860182613038565b508091505092915050565b6060820160008201516134f56000850182613521565b5060208201516135086020850182613521565b50604082015161351b6040850182613521565b50505050565b61352a81613afd565b82525050565b61353981613afd565b82525050565b60006020820190506135546000830184612e07565b92915050565b600060208201905081810360008301526135748184612e74565b905092915050565b600060208201905081810360008301526135968184612ed2565b905092915050565b600060208201905081810360008301526135b88184612f47565b905092915050565b600060208201905081810360008301526135da8184612fbc565b905092915050565b60006020820190506135f76000830184613029565b92915050565b60006020820190508181036000830152613616816130c8565b9050919050565b60006020820190508181036000830152613636816130eb565b9050919050565b600060208201905081810360008301526136568161310e565b9050919050565b6000602082019050818103600083015261367681613131565b9050919050565b6000602082019050818103600083015261369681613154565b9050919050565b600060208201905081810360008301526136b681613177565b9050919050565b600060208201905081810360008301526136d68161319a565b9050919050565b600060208201905081810360008301526136f6816131bd565b9050919050565b60006020820190508181036000830152613716816131e0565b9050919050565b6000602082019050818103600083015261373681613203565b9050919050565b6000602082019050818103600083015261375681613226565b9050919050565b6000602082019050818103600083015261377681613249565b9050919050565b600060208201905081810360008301526137968161326c565b9050919050565b600060208201905081810360008301526137b781846132f9565b905092915050565b600060208201905081810360008301526137d98184613421565b905092915050565b60006020820190506137f66000830184613530565b92915050565b60006060820190506138116000830186613530565b61381e6020830185612e07565b8181036040830152613830818461308f565b9050949350505050565b600061010082019050613850600083018b613530565b61385d602083018a612e07565b61386a6040830189613530565b818103606083015261387c818861308f565b90508181036080830152613890818761308f565b905081810360a08301526138a4818661308f565b90506138b360c0830185613029565b6138c060e0830184613047565b9998505050505050505050565b60006040820190506138e26000830185613530565b81810360208301526138f4818461308f565b90509392505050565b60006060820190506139126000830186613530565b61391f6020830185613530565b61392c6040830184613530565b949350505050565b600061393e61394f565b905061394a8282613b8d565b919050565b6000604051905090565b600067ffffffffffffffff82111561397457613973613c94565b5b61397d82613cc3565b9050602081019050919050565b6000819050602082019050919050565b6000819050602082019050919050565b6000819050602082019050919050565b6000819050602082019050919050565b600081519050919050565b600081519050919050565b600081519050919050565b600081519050919050565b600081519050919050565b6000602082019050919050565b6000602082019050919050565b6000602082019050919050565b6000602082019050919050565b600082825260208201905092915050565b600082825260208201905092915050565b600082825260208201905092915050565b600082825260208201905092915050565b600082825260208201905092915050565b600082825260208201905092915050565b600082825260208201905092915050565b6000613ab782613add565b9050919050565b60008115159050919050565b6000819050613ad882613fcd565b919050565b600073ffffffffffffffffffffffffffffffffffffffff82169050919050565b6000819050919050565b6000613b1282613aca565b9050919050565b82818337600083830152505050565b60005b83811015613b46578082015181840152602081019050613b2b565b83811115613b55576000848401525b50505050565b60006002820490506001821680613b7357607f821691505b60208210811415613b8757613b86613c65565b5b50919050565b613b9682613cc3565b810181811067ffffffffffffffff82111715613bb557613bb4613c94565b5b80604052505050565b6000613bc982613afd565b91507fffffffffffffffffffffffffffffffffffffffffffffffffffffffffffffffff821415613bfc57613bfb613c07565b5b600182019050919050565b7f4e487b7100000000000000000000000000000000000000000000000000000000600052601160045260246000fd5b7f4e487b7100000000000000000000000000000000000000000000000000000000600052602160045260246000fd5b7f4e487b7100000000000000000000000000000000000000000000000000000000600052602260045260246000fd5b7f4e487b7100000000000000000000000000000000000000000000000000000000600052604160045260246000fd5b6000601f19601f8301169050919050565b7f41646d696e20494420616c726561647920726567697374657265642e00000000600082015250565b7f3120657468657220726571756972656420746f20626f6f6b207468652061707060008201527f6f696e746d656e74000000000000000000000000000000000000000000000000602082015250565b7f5468697320616464726573732068617320616c7265616479207265676973746560008201527f7265642061732070617469656e742e0000000000000000000000000000000000602082015250565b7f446f63746f7220494420616c7265616479207265676973746572656400000000600082015250565b7f4f6e6c792061646d696e2063616e20706572666f726d2074686973206163746960008201527f6f6e2e0000000000000000000000000000000000000000000000000000000000602082015250565b7f446f63746f72206e6f7420726567697374657265642e00000000000000000000600082015250565b7f536c6f7420616c726561647920626f6f6b65642e000000000000000000000000600082015250565b7f5468697320616464726573732068617320616c7265616479207265676973746560008201527f72656420617320616e2061646d696e2e00000000000000000000000000000000602082015250565b7f50617469656e74206e6f7420726567697374657265642e000000000000000000600082015250565b7f43616e6e6f742075706461746520696e666f726d6174696f6e20666f7220646560008201527f6365617365642070617469656e74732e00000000000000000000000000000000602082015250565b7f496e76616c696420736c6f742e00000000000000000000000000000000000000600082015250565b7f50617469656e7420494420616c726561647920726567697374657265642e0000600082015250565b7f5468697320616464726573732068617320616c7265616479207265676973746560008201527f72656420617320646f63746f722e000000000000000000000000000000000000602082015250565b60038110613fde57613fdd613c36565b5b50565b613fea81613aac565b8114613ff557600080fd5b50565b61400181613abe565b811461400c57600080fd5b50565b6003811061401c57600080fd5b50565b61402881613afd565b811461403357600080fd5b5056fea26469706673582212208d21ed25bffbf0fb849799c710f5f780c77c333eb74e3af0a6858c4f59ac510364736f6c63430008040033",
  "immutableReferences": {},
  "source": "// SPDX-License-Identifier: MIT\npragma solidity ^0.8.4;\n\ncontract PatientManagementSystem {\n    enum VaccineStatus { NotVaccinated, OneDose, TwoDose }\n    \n    struct Patient {\n        uint id;\n        address patientAddress;\n        uint age;\n        string gender;\n        string district;\n        string symptomsDetails;\n        bool isDead;\n        VaccineStatus vaccineStatus;\n    }\n\n    struct Doctor {\n        uint id;\n        address doctorAddress;\n        string name;\n        bool[] availableSlots;\n    }\n\n    struct Admin {\n        uint id;\n        string name;\n    }\n\n    struct SlotDetail {\n        uint doctorId;\n        uint patientId;\n        uint slot;\n    }\n\n\n    mapping(uint => Patient) public patients;\n    mapping(uint => Doctor) public doctors;\n    mapping(uint => Admin) public admins;\n\n    mapping(uint => bool) public registeredPatientIDs;\n    mapping(address => bool) public registeredPatientAddresses;\n    mapping(uint => bool) public registeredDoctorIDs;\n    mapping(address => bool) public doctorAddresses;\n    mapping(uint => bool) public registeredAdminIDs;\n    mapping(address => bool) public registeredAdminAddresses;\n\n    mapping(uint => SlotDetail[]) public bookings;\n\n    uint[] public allPatientIDs; \n    uint[] public allDoctorIDs;  \n    \n    uint public totalPatients;\n    uint public totalDoctors;\n    uint public totalAdmins;\n\n    address public admin;\n\n    modifier onlyAdmin() {\n        require(msg.sender == admin, \"Only admin can perform this action.\");\n        _;\n    }\n\n    constructor() {\n        admin = msg.sender;\n    }\n\n    function registerPatient(address _addr, uint _id, uint _age, string memory _gender, string memory _district, string memory _symptomsDetails) public {\n        require(!registeredPatientIDs[_id], \"Patient ID already registered.\");\n        require(!registeredPatientAddresses[_addr], \"This address has already registered as patient.\");\n        \n        patients[_id] = Patient(_id, _addr, _age, _gender, _district, _symptomsDetails, false, VaccineStatus.NotVaccinated);\n        registeredPatientIDs[_id] = true;\n        registeredPatientAddresses[_addr] = true;\n        allPatientIDs.push(_id);\n        totalPatients++;\n    }\n\n    function registerDoctor(address _addr, uint _id, string memory _name) public onlyAdmin {\n        require(!registeredDoctorIDs[_id], \"Doctor ID already registered\");\n        require(!doctorAddresses[_addr], \"This address has already registered as doctor.\");\n        \n        Doctor storage doc = doctors[_id];\n        doc.id = _id;\n        doc.doctorAddress = _addr;\n        doc.name = _name;\n        doc.availableSlots = new bool[] (24) ;\n        for (uint i = 0; i < 24; i++) {\n            doc.availableSlots[i] = true;\n        }\n        \n        doctorAddresses[_addr] = true;\n        registeredDoctorIDs[_id] = true;\n        allDoctorIDs.push(_id);\n        totalDoctors++;\n    }\n\n    function registerAdmin(address _addr, uint _id, string memory _name) public onlyAdmin {\n        require(!registeredAdminIDs[_id], \"Admin ID already registered.\");\n        require(!registeredAdminAddresses[_addr], \"This address has already registered as an admin.\");\n        \n        admins[_id] = Admin(_id, _name);\n        registeredAdminIDs[_id] = true;\n        registeredAdminAddresses[_addr] = true;\n        totalAdmins++;\n    }\n\n    function updatePatientInfo(uint patientId, VaccineStatus newVaccineStatus, bool isDead) public onlyAdmin {\n        require(registeredPatientIDs[patientId], \"Patient not registered.\"); \n        require(!patients[patientId].isDead, \"Cannot update information for deceased patients.\");\n\n        patients[patientId].vaccineStatus = newVaccineStatus;\n        if (isDead) { \n            patients[patientId].isDead = isDead;\n        }\n    }\n    \n    function bookAppointment(uint _doctorId, uint _slot, uint _patientId) public payable {\n        require(doctors[_doctorId].id != 0, \"Doctor not registered.\");\n        require(_slot < 24 && _slot >= 0, \"Invalid slot.\");\n        require(patients[_patientId].id != 0, \"Patient not registered.\");\n        require(msg.value == 1 ether, \"1 ether required to book the appointment\");\n        \n        for (uint i = 0; i < bookings[_doctorId].length; i++) {\n            require(!(bookings[_doctorId][i].slot == _slot), \"Slot already booked.\");\n        }\n\n        SlotDetail memory newBooking = SlotDetail({\n            doctorId: _doctorId,\n            patientId: _patientId,\n            slot: _slot\n        });\n        bookings[_doctorId].push(newBooking);\n    }\n\n    function checkAppointmentSchedule(uint doctorId) public view returns (bool[] memory) {\n        require(registeredDoctorIDs[doctorId], \"Doctor not registered.\");\n        return doctors[doctorId].availableSlots;\n    }\n\n    function getPatientDetails(uint patientId) public view returns (Patient memory) {\n        require(registeredPatientIDs[patientId], \"Patient not registered.\");\n        return patients[patientId];\n    }\n\n    function getDoctorDetails(uint doctorId) public view returns (Doctor memory) {\n        require(registeredDoctorIDs[doctorId], \"Doctor not registered.\");\n        return doctors[doctorId];\n    }\n\n    function getAllPatients() public view returns (Patient[] memory) {\n        Patient[] memory all = new Patient[](allPatientIDs.length);\n        for (uint i = 0; i < allPatientIDs.length; i++) {\n            all[i] = patients[allPatientIDs[i]];\n        }\n        return all;\n    }\n\n    function getAllDoctors() public view returns (Doctor[] memory) {\n        Doctor[] memory all = new Doctor[](allDoctorIDs.length);\n        for (uint i = 0; i < allDoctorIDs.length; i++) {\n            all[i] = doctors[allDoctorIDs[i]];\n        }\n        return all;\n    }\n\n    function bookingDetails(uint _doctorId) public view returns (SlotDetail[] memory) {\n        return bookings[_doctorId];\n    }\n}",
  "sourcePath": "/home/isttiiak/BRAC/CSE-446/LAB/PatientManagementDApp/contracts/PatientManagementSystem.sol",
  "compiler": {
    "name": "solc",
    "version": "0.8.4+commit.c7e474f2.Emscripten.clang"
  },
  "schemaVersion": "3.4.16",
  "updatedAt": "2025-01-01T17:31:42.305Z",
  "networkType": "ethereum",
  "devdoc": {
    "kind": "dev",
    "methods": {},
    "version": 1
  },
  "userdoc": {
    "kind": "user",
    "methods": {},
    "version": 1
  }
}